{
  "contractName": "Voting",
  "abi": [
    {
      "inputs": [],
      "stateMutability": "nonpayable",
      "type": "constructor"
    },
    {
      "anonymous": false,
      "inputs": [
        {
          "indexed": true,
          "internalType": "address",
          "name": "previousOwner",
          "type": "address"
        },
        {
          "indexed": true,
          "internalType": "address",
          "name": "newOwner",
          "type": "address"
        }
      ],
      "name": "OwnershipTransferred",
      "type": "event"
    },
    {
      "anonymous": false,
      "inputs": [
        {
          "indexed": false,
          "internalType": "uint256",
          "name": "proposalId",
          "type": "uint256"
        }
      ],
      "name": "ProposalRegistered",
      "type": "event"
    },
    {
      "anonymous": false,
      "inputs": [
        {
          "indexed": false,
          "internalType": "address",
          "name": "voter",
          "type": "address"
        },
        {
          "indexed": false,
          "internalType": "uint256",
          "name": "proposalId",
          "type": "uint256"
        }
      ],
      "name": "Voted",
      "type": "event"
    },
    {
      "anonymous": false,
      "inputs": [
        {
          "indexed": false,
          "internalType": "address",
          "name": "voterAddress",
          "type": "address"
        }
      ],
      "name": "VoterRegistered",
      "type": "event"
    },
    {
      "anonymous": false,
      "inputs": [
        {
          "indexed": false,
          "internalType": "enum Voting.WorkflowStatus",
          "name": "previousStatus",
          "type": "uint8"
        },
        {
          "indexed": false,
          "internalType": "enum Voting.WorkflowStatus",
          "name": "newStatus",
          "type": "uint8"
        }
      ],
      "name": "WorkflowStatusChange",
      "type": "event"
    },
    {
      "inputs": [],
      "name": "owner",
      "outputs": [
        {
          "internalType": "address",
          "name": "",
          "type": "address"
        }
      ],
      "stateMutability": "view",
      "type": "function",
      "constant": true
    },
    {
      "inputs": [],
      "name": "renounceOwnership",
      "outputs": [],
      "stateMutability": "nonpayable",
      "type": "function"
    },
    {
      "inputs": [
        {
          "internalType": "address",
          "name": "newOwner",
          "type": "address"
        }
      ],
      "name": "transferOwnership",
      "outputs": [],
      "stateMutability": "nonpayable",
      "type": "function"
    },
    {
      "inputs": [],
      "name": "getWinner",
      "outputs": [
        {
          "internalType": "uint256",
          "name": "",
          "type": "uint256"
        }
      ],
      "stateMutability": "view",
      "type": "function",
      "constant": true
    },
    {
      "inputs": [
        {
          "internalType": "address",
          "name": "_address",
          "type": "address"
        }
      ],
      "name": "addVoter",
      "outputs": [],
      "stateMutability": "nonpayable",
      "type": "function"
    },
    {
      "inputs": [],
      "name": "startProposals",
      "outputs": [],
      "stateMutability": "nonpayable",
      "type": "function"
    },
    {
      "inputs": [
        {
          "internalType": "string",
          "name": "_description",
          "type": "string"
        }
      ],
      "name": "addProposal",
      "outputs": [],
      "stateMutability": "nonpayable",
      "type": "function"
    },
    {
      "inputs": [
        {
          "internalType": "uint256",
          "name": "_proposalId",
          "type": "uint256"
        }
      ],
      "name": "seeProposal",
      "outputs": [
        {
          "internalType": "string",
          "name": "",
          "type": "string"
        }
      ],
      "stateMutability": "view",
      "type": "function",
      "constant": true
    },
    {
      "inputs": [],
      "name": "stopProposals",
      "outputs": [],
      "stateMutability": "nonpayable",
      "type": "function"
    },
    {
      "inputs": [],
      "name": "startVoting",
      "outputs": [],
      "stateMutability": "nonpayable",
      "type": "function"
    },
    {
      "inputs": [
        {
          "internalType": "uint256",
          "name": "_proposalId",
          "type": "uint256"
        }
      ],
      "name": "vote",
      "outputs": [],
      "stateMutability": "nonpayable",
      "type": "function"
    },
    {
      "inputs": [],
      "name": "stopVoting",
      "outputs": [],
      "stateMutability": "nonpayable",
      "type": "function"
    },
    {
      "inputs": [],
      "name": "tallyVotes",
      "outputs": [],
      "stateMutability": "nonpayable",
      "type": "function"
    }
  ],
  "bytecode": "0x60806040523480156200001157600080fd5b5062000032620000266200008160201b60201c565b6200008960201b60201c565b6000600260006101000a81548160ff021916908360058111156200005b576200005a6200014d565b5b02179055506000600560006101000a81548160ff0219169083151502179055506200017c565b600033905090565b60008060009054906101000a900473ffffffffffffffffffffffffffffffffffffffff169050816000806101000a81548173ffffffffffffffffffffffffffffffffffffffff021916908373ffffffffffffffffffffffffffffffffffffffff1602179055508173ffffffffffffffffffffffffffffffffffffffff168173ffffffffffffffffffffffffffffffffffffffff167f8be0079c531659141344cd1fd0a4f28419497f9722a3daafe3b4186f6b6457e060405160405180910390a35050565b7f4e487b7100000000000000000000000000000000000000000000000000000000600052602160045260246000fd5b611d5d806200018c6000396000f3fe608060405234801561001057600080fd5b50600436106100cf5760003560e01c8063715018a61161008c5780638e7ea5b2116100665780638e7ea5b21461018c578063f2fde38b146101aa578063f4ab9adf146101c6578063fab2f86b146101e2576100cf565b8063715018a61461015a578063873fbf36146101645780638da5cb5b1461016e576100cf565b80630121b93f146100d45780631ec6b60a146100f05780632fdae3c5146100fa578063378a2178146101165780634d5e00bd146101205780636d58cfce14610150575b600080fd5b6100ee60048036038101906100e99190610f76565b6101ec565b005b6100f86104ed565b005b610114600480360381019061010f91906110e9565b610503565b005b61011e6106b6565b005b61013a60048036038101906101359190610f76565b610769565b60405161014791906111b1565b60405180910390f35b610158610940565b005b610162610956565b005b61016c61096a565b005b610176610980565b6040516101839190611214565b60405180910390f35b6101946109a9565b6040516101a1919061123e565b60405180910390f35b6101c460048036038101906101bf9190611285565b610a77565b005b6101e060048036038101906101db9190611285565b610afa565b005b6101ea610cf0565b005b60036005811115610200576101ff6112b2565b5b600260009054906101000a900460ff166005811115610222576102216112b2565b5b14610262576040517f08c379a000000000000000000000000000000000000000000000000000000000815260040161025990611353565b60405180910390fd5b600160003373ffffffffffffffffffffffffffffffffffffffff1673ffffffffffffffffffffffffffffffffffffffff16815260200190815260200160002060000160009054906101000a900460ff166102f1576040517f08c379a00000000000000000000000000000000000000000000000000000000081526004016102e8906113bf565b60405180910390fd5b600160003373ffffffffffffffffffffffffffffffffffffffff1673ffffffffffffffffffffffffffffffffffffffff16815260200190815260200160002060000160019054906101000a900460ff1615610381576040517f08c379a00000000000000000000000000000000000000000000000000000000081526004016103789061142b565b60405180910390fd5b60008110158015610396575060038054905081105b6103d5576040517f08c379a00000000000000000000000000000000000000000000000000000000081526004016103cc90611497565b60405180910390fd5b60018060003373ffffffffffffffffffffffffffffffffffffffff1673ffffffffffffffffffffffffffffffffffffffff16815260200190815260200160002060000160016101000a81548160ff02191690831515021790555080600160003373ffffffffffffffffffffffffffffffffffffffff1673ffffffffffffffffffffffffffffffffffffffff168152602001908152602001600020600101819055506003818154811061048a576104896114b7565b5b906000526020600020906002020160010160008154809291906104ac90611515565b91905055507f4d99b957a2bc29a30ebd96a7be8e68fe50a3c701db28a91436490b7d53870ca433826040516104e292919061155d565b60405180910390a150565b6104f5610d06565b61050160026003610d84565b565b60016005811115610517576105166112b2565b5b600260009054906101000a900460ff166005811115610539576105386112b2565b5b14610579576040517f08c379a000000000000000000000000000000000000000000000000000000000815260040161057090611353565b60405180910390fd5b600160003373ffffffffffffffffffffffffffffffffffffffff1673ffffffffffffffffffffffffffffffffffffffff16815260200190815260200160002060000160009054906101000a900460ff16610608576040517f08c379a00000000000000000000000000000000000000000000000000000000081526004016105ff906115f8565b60405180910390fd5b6003604051806040016040528083815260200160008152509080600181540180825580915050600190039060005260206000209060020201600090919091909150600082015181600001908161065e9190611824565b506020820151816001015550507f92e393e9b54e2f801d3ea4beb0c5e71a21cc34a5d34b77d0fb8a3aa1650dc18f600160038054905061069e91906118f6565b6040516106ab919061123e565b60405180910390a150565b6106be610d06565b6106ca60046005610d84565b6000805b60038054905081101561074a5781600382815481106106f0576106ef6114b7565b5b90600052602060002090600202016001015410610737576003818154811061071b5761071a6114b7565b5b9060005260206000209060020201600101549150806004819055505b808061074290611515565b9150506106ce565b506001600560006101000a81548160ff02191690831515021790555050565b6060600160003373ffffffffffffffffffffffffffffffffffffffff1673ffffffffffffffffffffffffffffffffffffffff16815260200190815260200160002060000160009054906101000a900460ff16806107f857506107c9610980565b73ffffffffffffffffffffffffffffffffffffffff163373ffffffffffffffffffffffffffffffffffffffff16145b610837576040517f08c379a000000000000000000000000000000000000000000000000000000000815260040161082e9061199c565b60405180910390fd5b6000821015801561084c575060038054905082105b61088b576040517f08c379a000000000000000000000000000000000000000000000000000000000815260040161088290611497565b60405180910390fd5b6003828154811061089f5761089e6114b7565b5b906000526020600020906002020160000180546108bb90611647565b80601f01602080910402602001604051908101604052809291908181526020018280546108e790611647565b80156109345780601f1061090957610100808354040283529160200191610934565b820191906000526020600020905b81548152906001019060200180831161091757829003601f168201915b50505050509050919050565b610948610d06565b61095460016002610d84565b565b61095e610d06565b6109686000610e60565b565b610972610d06565b61097e60006001610d84565b565b60008060009054906101000a900473ffffffffffffffffffffffffffffffffffffffff16905090565b60006005808111156109be576109bd6112b2565b5b600260009054906101000a900460ff1660058111156109e0576109df6112b2565b5b14610a20576040517f08c379a0000000000000000000000000000000000000000000000000000000008152600401610a1790611a08565b60405180910390fd5b600560009054906101000a900460ff16610a6f576040517f08c379a0000000000000000000000000000000000000000000000000000000008152600401610a6690611a9a565b60405180910390fd5b600454905090565b610a7f610d06565b600073ffffffffffffffffffffffffffffffffffffffff168173ffffffffffffffffffffffffffffffffffffffff1603610aee576040517f08c379a0000000000000000000000000000000000000000000000000000000008152600401610ae590611b2c565b60405180910390fd5b610af781610e60565b50565b610b02610d06565b60006005811115610b1657610b156112b2565b5b600260009054906101000a900460ff166005811115610b3857610b376112b2565b5b14610b78576040517f08c379a0000000000000000000000000000000000000000000000000000000008152600401610b6f90611bbe565b60405180910390fd5b600160008273ffffffffffffffffffffffffffffffffffffffff1673ffffffffffffffffffffffffffffffffffffffff16815260200190815260200160002060000160009054906101000a900460ff1615610c08576040517f08c379a0000000000000000000000000000000000000000000000000000000008152600401610bff90611c2a565b60405180910390fd5b60405180606001604052806001151581526020016000151581526020016000815250600160008373ffffffffffffffffffffffffffffffffffffffff1673ffffffffffffffffffffffffffffffffffffffff16815260200190815260200160002060008201518160000160006101000a81548160ff02191690831515021790555060208201518160000160016101000a81548160ff021916908315150217905550604082015181600101559050507fb6be2187d059cc2a55fe29e0e503b566e1e0f8c8780096e185429350acffd3dd81604051610ce59190611214565b60405180910390a150565b610cf8610d06565b610d0460036004610d84565b565b610d0e610f24565b73ffffffffffffffffffffffffffffffffffffffff16610d2c610980565b73ffffffffffffffffffffffffffffffffffffffff1614610d82576040517f08c379a0000000000000000000000000000000000000000000000000000000008152600401610d7990611c96565b60405180910390fd5b565b816005811115610d9757610d966112b2565b5b600260009054906101000a900460ff166005811115610db957610db86112b2565b5b14610df9576040517f08c379a0000000000000000000000000000000000000000000000000000000008152600401610df090611353565b60405180910390fd5b80600260006101000a81548160ff02191690836005811115610e1e57610e1d6112b2565b5b02179055507f0a97a4ee45751e2abf3e4fc8946939630b11b371ea8ae39ccdc3056e98f5cc3f8282604051610e54929190611cfe565b60405180910390a15050565b60008060009054906101000a900473ffffffffffffffffffffffffffffffffffffffff169050816000806101000a81548173ffffffffffffffffffffffffffffffffffffffff021916908373ffffffffffffffffffffffffffffffffffffffff1602179055508173ffffffffffffffffffffffffffffffffffffffff168173ffffffffffffffffffffffffffffffffffffffff167f8be0079c531659141344cd1fd0a4f28419497f9722a3daafe3b4186f6b6457e060405160405180910390a35050565b600033905090565b6000604051905090565b600080fd5b600080fd5b6000819050919050565b610f5381610f40565b8114610f5e57600080fd5b50565b600081359050610f7081610f4a565b92915050565b600060208284031215610f8c57610f8b610f36565b5b6000610f9a84828501610f61565b91505092915050565b600080fd5b600080fd5b6000601f19601f8301169050919050565b7f4e487b7100000000000000000000000000000000000000000000000000000000600052604160045260246000fd5b610ff682610fad565b810181811067ffffffffffffffff8211171561101557611014610fbe565b5b80604052505050565b6000611028610f2c565b90506110348282610fed565b919050565b600067ffffffffffffffff82111561105457611053610fbe565b5b61105d82610fad565b9050602081019050919050565b82818337600083830152505050565b600061108c61108784611039565b61101e565b9050828152602081018484840111156110a8576110a7610fa8565b5b6110b384828561106a565b509392505050565b600082601f8301126110d0576110cf610fa3565b5b81356110e0848260208601611079565b91505092915050565b6000602082840312156110ff576110fe610f36565b5b600082013567ffffffffffffffff81111561111d5761111c610f3b565b5b611129848285016110bb565b91505092915050565b600081519050919050565b600082825260208201905092915050565b60005b8381101561116c578082015181840152602081019050611151565b60008484015250505050565b600061118382611132565b61118d818561113d565b935061119d81856020860161114e565b6111a681610fad565b840191505092915050565b600060208201905081810360008301526111cb8184611178565b905092915050565b600073ffffffffffffffffffffffffffffffffffffffff82169050919050565b60006111fe826111d3565b9050919050565b61120e816111f3565b82525050565b60006020820190506112296000830184611205565b92915050565b61123881610f40565b82525050565b6000602082019050611253600083018461122f565b92915050565b611262816111f3565b811461126d57600080fd5b50565b60008135905061127f81611259565b92915050565b60006020828403121561129b5761129a610f36565b5b60006112a984828501611270565b91505092915050565b7f4e487b7100000000000000000000000000000000000000000000000000000000600052602160045260246000fd5b7f4f7065726174696f6e206e6f7420616c6c6f7765642c20706c6561736520736560008201527f65206576656e74206c6f672e0000000000000000000000000000000000000000602082015250565b600061133d602c8361113d565b9150611348826112e1565b604082019050919050565b6000602082019050818103600083015261136c81611330565b9050919050565b7f596f7520277265206e6f7420616c6c6f77656420746f20766f74652e00000000600082015250565b60006113a9601c8361113d565b91506113b482611373565b602082019050919050565b600060208201905081810360008301526113d88161139c565b9050919050565b7f596f7520616c726561647920766f7465642e0000000000000000000000000000600082015250565b600061141560128361113d565b9150611420826113df565b602082019050919050565b6000602082019050818103600083015261144481611408565b9050919050565b7f57726f6e672070726f706f73616c206964000000000000000000000000000000600082015250565b600061148160118361113d565b915061148c8261144b565b602082019050919050565b600060208201905081810360008301526114b081611474565b9050919050565b7f4e487b7100000000000000000000000000000000000000000000000000000000600052603260045260246000fd5b7f4e487b7100000000000000000000000000000000000000000000000000000000600052601160045260246000fd5b600061152082610f40565b91507fffffffffffffffffffffffffffffffffffffffffffffffffffffffffffffffff8203611552576115516114e6565b5b600182019050919050565b60006040820190506115726000830185611205565b61157f602083018461122f565b9392505050565b7f596f7520277265206e6f7420616c6c6f77656420746f2061646420612070726f60008201527f706f73616c2e0000000000000000000000000000000000000000000000000000602082015250565b60006115e260268361113d565b91506115ed82611586565b604082019050919050565b60006020820190508181036000830152611611816115d5565b9050919050565b7f4e487b7100000000000000000000000000000000000000000000000000000000600052602260045260246000fd5b6000600282049050600182168061165f57607f821691505b60208210810361167257611671611618565b5b50919050565b60008190508160005260206000209050919050565b60006020601f8301049050919050565b600082821b905092915050565b6000600883026116da7fffffffffffffffffffffffffffffffffffffffffffffffffffffffffffffffff8261169d565b6116e4868361169d565b95508019841693508086168417925050509392505050565b6000819050919050565b600061172161171c61171784610f40565b6116fc565b610f40565b9050919050565b6000819050919050565b61173b83611706565b61174f61174782611728565b8484546116aa565b825550505050565b600090565b611764611757565b61176f818484611732565b505050565b5b818110156117935761178860008261175c565b600181019050611775565b5050565b601f8211156117d8576117a981611678565b6117b28461168d565b810160208510156117c1578190505b6117d56117cd8561168d565b830182611774565b50505b505050565b600082821c905092915050565b60006117fb600019846008026117dd565b1980831691505092915050565b600061181483836117ea565b9150826002028217905092915050565b61182d82611132565b67ffffffffffffffff81111561184657611845610fbe565b5b6118508254611647565b61185b828285611797565b600060209050601f83116001811461188e576000841561187c578287015190505b6118868582611808565b8655506118ee565b601f19841661189c86611678565b60005b828110156118c45784890151825560018201915060208501945060208101905061189f565b868310156118e157848901516118dd601f8916826117ea565b8355505b6001600288020188555050505b505050505050565b600061190182610f40565b915061190c83610f40565b9250828203905081811115611924576119236114e6565b5b92915050565b7f596f7520277265206e6f7420616c6c6f77656420746f207365652070726f706f60008201527f73616c2e00000000000000000000000000000000000000000000000000000000602082015250565b600061198660248361113d565b91506119918261192a565b604082019050919050565b600060208201905081810360008301526119b581611979565b9050919050565b7f566f7465206973206e6f742074616c6c6965642e000000000000000000000000600082015250565b60006119f260148361113d565b91506119fd826119bc565b602082019050919050565b60006020820190508181036000830152611a21816119e5565b9050919050565b7f566f746520697320636f6d707574696e672c20706c656173652062652070617460008201527f69656e742e000000000000000000000000000000000000000000000000000000602082015250565b6000611a8460258361113d565b9150611a8f82611a28565b604082019050919050565b60006020820190508181036000830152611ab381611a77565b9050919050565b7f4f776e61626c653a206e6577206f776e657220697320746865207a65726f206160008201527f6464726573730000000000000000000000000000000000000000000000000000602082015250565b6000611b1660268361113d565b9150611b2182611aba565b604082019050919050565b60006020820190508181036000830152611b4581611b09565b9050919050565b7f43616e2774207265676973746572206e657720766f7465727320616e796d6f7260008201527f652e000000000000000000000000000000000000000000000000000000000000602082015250565b6000611ba860228361113d565b9150611bb382611b4c565b604082019050919050565b60006020820190508181036000830152611bd781611b9b565b9050919050565b7f43616e27742061646420766f7465722074776963652e00000000000000000000600082015250565b6000611c1460168361113d565b9150611c1f82611bde565b602082019050919050565b60006020820190508181036000830152611c4381611c07565b9050919050565b7f4f776e61626c653a2063616c6c6572206973206e6f7420746865206f776e6572600082015250565b6000611c8060208361113d565b9150611c8b82611c4a565b602082019050919050565b60006020820190508181036000830152611caf81611c73565b9050919050565b60068110611cc757611cc66112b2565b5b50565b6000819050611cd882611cb6565b919050565b6000611ce882611cca565b9050919050565b611cf881611cdd565b82525050565b6000604082019050611d136000830185611cef565b611d206020830184611cef565b939250505056fea264697066735822122079d087b5729ab5e4b8ff5069b8c595702e5660e7e6cf7b641767339daaadff3d64736f6c63430008110033",
  "immutableReferences": {},
  "source": "// SPDX-License-Identifier: GPL-3.0\n\npragma solidity >=0.7.0 <0.9.0;\n\nimport \"@openzeppelin/contracts/access/Ownable.sol\";\n\ncontract Voting is Ownable {\n\n    struct Voter {\n        bool isRegistered;\n        bool hasVoted;\n        uint votedProposalId;\n    }\n\n    struct Proposal {\n        string description;\n        uint voteCount;\n    }\n\n    enum WorkflowStatus {\n        RegisteringVoters,\n        ProposalsRegistrationStarted,\n        ProposalsRegistrationEnded,\n        VotingSessionStarted,\n        VotingSessionEnded,\n        VotesTallied\n    }\n\n    mapping (address => Voter) voters;\n    WorkflowStatus workflowStatus;\n    Proposal[] proposals;\n    \n    uint winningProposalId;\n\n    bool definitivelyTallied;\n\n    event VoterRegistered(address voterAddress); \n    event WorkflowStatusChange(WorkflowStatus previousStatus, WorkflowStatus newStatus);\n    event ProposalRegistered(uint proposalId);\n    event Voted (address voter, uint proposalId);\n\n    function getWinner() public view returns (uint) {\n        require(workflowStatus == WorkflowStatus.VotesTallied, \"Vote is not tallied.\");\n        require(definitivelyTallied, \"Vote is computing, please be patient.\");\n\n        return winningProposalId;\n    }\n\n    constructor () {\n        // Start directly with registering voters\n        workflowStatus = WorkflowStatus.RegisteringVoters;\n        definitivelyTallied = false;\n    }\n\n    function addVoter(address _address) public onlyOwner {\n        require(workflowStatus == WorkflowStatus.RegisteringVoters, \"Can't register new voters anymore.\");\n        require(!voters[_address].isRegistered, \"Can't add voter twice.\");\n\n        voters[_address] = Voter({\n            isRegistered: true,\n            hasVoted: false,\n            votedProposalId: 0\n        });\n\n        emit VoterRegistered(_address);\n    }\n\n    function transitionWorkflow(WorkflowStatus previousStatus, WorkflowStatus newStatus) internal {\n        require(workflowStatus == previousStatus, \"Operation not allowed, please see event log.\");\n        workflowStatus = newStatus;\n        emit WorkflowStatusChange(previousStatus , newStatus);   \n    }\n\n    function startProposals() public onlyOwner {\n        transitionWorkflow(WorkflowStatus.RegisteringVoters, WorkflowStatus.ProposalsRegistrationStarted);\n    }\n\n    function addProposal(string memory _description) public {\n        require(workflowStatus == WorkflowStatus.ProposalsRegistrationStarted, \"Operation not allowed, please see event log.\");\n        require(voters[msg.sender].isRegistered, \"You 're not allowed to add a proposal.\");\n\n        proposals.push(Proposal({\n                description: _description,\n                voteCount: 0\n            })\n        );\n\n        emit ProposalRegistered(proposals.length - 1);\n    }\n\n    function seeProposal(uint _proposalId) public view returns (string memory) {\n        require(voters[msg.sender].isRegistered || msg.sender == owner(), \"You 're not allowed to see proposal.\");\n        require(_proposalId >= 0 && _proposalId < proposals.length, \"Wrong proposal id\");\n\n        return proposals[_proposalId].description;\n    }\n\n    function stopProposals() public onlyOwner {\n        transitionWorkflow(WorkflowStatus.ProposalsRegistrationStarted, WorkflowStatus.ProposalsRegistrationEnded);\n    }\n\n    function startVoting() public onlyOwner {\n        transitionWorkflow(WorkflowStatus.ProposalsRegistrationEnded, WorkflowStatus.VotingSessionStarted);\n    }\n\n    function vote(uint _proposalId) public {\n        require(workflowStatus == WorkflowStatus.VotingSessionStarted, \"Operation not allowed, please see event log.\");\n        require(voters[msg.sender].isRegistered, \"You 're not allowed to vote.\");\n        require(!voters[msg.sender].hasVoted, \"You already voted.\");\n        require(_proposalId >= 0 && _proposalId < proposals.length, \"Wrong proposal id\");\n\n        voters[msg.sender].hasVoted = true;\n        voters[msg.sender].votedProposalId = _proposalId;\n\n        proposals[_proposalId].voteCount ++;\n\n        emit Voted (msg.sender, _proposalId);\n    }\n\n    function stopVoting() public onlyOwner {\n        transitionWorkflow(WorkflowStatus.VotingSessionStarted, WorkflowStatus.VotingSessionEnded);\n    }\n\n    function tallyVotes() public onlyOwner {\n        transitionWorkflow(WorkflowStatus.VotingSessionEnded, WorkflowStatus.VotesTallied);\n\n        uint voteCount = 0;\n\n        for(uint i = 0; i < proposals.length; i++) {\n            if (proposals[i].voteCount >= voteCount) {\n                // @todo what if two proposals have the same voteCount value ?\n                voteCount = proposals[i].voteCount;\n                winningProposalId = i;\n            }\n        }\n\n        // Used because whenever workflow have changed, it can be very time consuming \n        // if proposals.length is huge.\n        definitivelyTallied = true;\n    }\n\n}\n",
  "sourcePath": "/Users/jef/Code/Web3/Developpeur-Ethereum-Formation/4. Truffle & CI-CD/contracts/Voting.sol",
  "compiler": {
    "name": "solc",
    "version": "0.8.17+commit.8df45f5f.Emscripten.clang"
  },
  "schemaVersion": "3.4.11",
  "updatedAt": "2023-03-06T19:05:10.650Z",
  "networkType": "ethereum",
  "devdoc": {
    "kind": "dev",
    "methods": {
      "owner()": {
        "details": "Returns the address of the current owner."
      },
      "renounceOwnership()": {
        "details": "Leaves the contract without owner. It will not be possible to call `onlyOwner` functions anymore. Can only be called by the current owner. NOTE: Renouncing ownership will leave the contract without an owner, thereby removing any functionality that is only available to the owner."
      },
      "transferOwnership(address)": {
        "details": "Transfers ownership of the contract to a new account (`newOwner`). Can only be called by the current owner."
      }
    },
    "version": 1
  },
  "userdoc": {
    "kind": "user",
    "methods": {},
    "version": 1
  }
}